{"abi":[{"type":"constructor","inputs":[{"name":"name_","type":"string","internalType":"string"},{"name":"symbol_","type":"string","internalType":"string"}],"stateMutability":"nonpayable"},{"type":"function","name":"DEFAULT_ADMIN_ROLE","inputs":[],"outputs":[{"name":"","type":"bytes32","internalType":"bytes32"}],"stateMutability":"view"},{"type":"function","name":"MINTER_ROLE","inputs":[],"outputs":[{"name":"","type":"bytes32","internalType":"bytes32"}],"stateMutability":"view"},{"type":"function","name":"allowance","inputs":[{"name":"owner","type":"address","internalType":"address"},{"name":"spender","type":"address","internalType":"address"}],"outputs":[{"name":"","type":"uint256","internalType":"uint256"}],"stateMutability":"view"},{"type":"function","name":"approve","inputs":[{"name":"spender","type":"address","internalType":"address"},{"name":"value","type":"uint256","internalType":"uint256"}],"outputs":[{"name":"","type":"bool","internalType":"bool"}],"stateMutability":"nonpayable"},{"type":"function","name":"balanceOf","inputs":[{"name":"account","type":"address","internalType":"address"}],"outputs":[{"name":"","type":"uint256","internalType":"uint256"}],"stateMutability":"view"},{"type":"function","name":"decimals","inputs":[],"outputs":[{"name":"","type":"uint8","internalType":"uint8"}],"stateMutability":"pure"},{"type":"function","name":"getRoleAdmin","inputs":[{"name":"role","type":"bytes32","internalType":"bytes32"}],"outputs":[{"name":"","type":"bytes32","internalType":"bytes32"}],"stateMutability":"view"},{"type":"function","name":"grantRole","inputs":[{"name":"role","type":"bytes32","internalType":"bytes32"},{"name":"account","type":"address","internalType":"address"}],"outputs":[],"stateMutability":"nonpayable"},{"type":"function","name":"hasRole","inputs":[{"name":"role","type":"bytes32","internalType":"bytes32"},{"name":"account","type":"address","internalType":"address"}],"outputs":[{"name":"","type":"bool","internalType":"bool"}],"stateMutability":"view"},{"type":"function","name":"mint","inputs":[{"name":"to","type":"address","internalType":"address"},{"name":"amount","type":"uint256","internalType":"uint256"}],"outputs":[],"stateMutability":"nonpayable"},{"type":"function","name":"name","inputs":[],"outputs":[{"name":"","type":"string","internalType":"string"}],"stateMutability":"view"},{"type":"function","name":"renounceRole","inputs":[{"name":"role","type":"bytes32","internalType":"bytes32"},{"name":"callerConfirmation","type":"address","internalType":"address"}],"outputs":[],"stateMutability":"nonpayable"},{"type":"function","name":"revokeRole","inputs":[{"name":"role","type":"bytes32","internalType":"bytes32"},{"name":"account","type":"address","internalType":"address"}],"outputs":[],"stateMutability":"nonpayable"},{"type":"function","name":"supportsInterface","inputs":[{"name":"interfaceId","type":"bytes4","internalType":"bytes4"}],"outputs":[{"name":"","type":"bool","internalType":"bool"}],"stateMutability":"view"},{"type":"function","name":"symbol","inputs":[],"outputs":[{"name":"","type":"string","internalType":"string"}],"stateMutability":"view"},{"type":"function","name":"totalSupply","inputs":[],"outputs":[{"name":"","type":"uint256","internalType":"uint256"}],"stateMutability":"view"},{"type":"function","name":"transfer","inputs":[{"name":"to","type":"address","internalType":"address"},{"name":"value","type":"uint256","internalType":"uint256"}],"outputs":[{"name":"","type":"bool","internalType":"bool"}],"stateMutability":"nonpayable"},{"type":"function","name":"transferFrom","inputs":[{"name":"from","type":"address","internalType":"address"},{"name":"to","type":"address","internalType":"address"},{"name":"value","type":"uint256","internalType":"uint256"}],"outputs":[{"name":"","type":"bool","internalType":"bool"}],"stateMutability":"nonpayable"},{"type":"event","name":"Approval","inputs":[{"name":"owner","type":"address","indexed":true,"internalType":"address"},{"name":"spender","type":"address","indexed":true,"internalType":"address"},{"name":"value","type":"uint256","indexed":false,"internalType":"uint256"}],"anonymous":false},{"type":"event","name":"RoleAdminChanged","inputs":[{"name":"role","type":"bytes32","indexed":true,"internalType":"bytes32"},{"name":"previousAdminRole","type":"bytes32","indexed":true,"internalType":"bytes32"},{"name":"newAdminRole","type":"bytes32","indexed":true,"internalType":"bytes32"}],"anonymous":false},{"type":"event","name":"RoleGranted","inputs":[{"name":"role","type":"bytes32","indexed":true,"internalType":"bytes32"},{"name":"account","type":"address","indexed":true,"internalType":"address"},{"name":"sender","type":"address","indexed":true,"internalType":"address"}],"anonymous":false},{"type":"event","name":"RoleRevoked","inputs":[{"name":"role","type":"bytes32","indexed":true,"internalType":"bytes32"},{"name":"account","type":"address","indexed":true,"internalType":"address"},{"name":"sender","type":"address","indexed":true,"internalType":"address"}],"anonymous":false},{"type":"event","name":"Transfer","inputs":[{"name":"from","type":"address","indexed":true,"internalType":"address"},{"name":"to","type":"address","indexed":true,"internalType":"address"},{"name":"value","type":"uint256","indexed":false,"internalType":"uint256"}],"anonymous":false},{"type":"error","name":"AccessControlBadConfirmation","inputs":[]},{"type":"error","name":"AccessControlUnauthorizedAccount","inputs":[{"name":"account","type":"address","internalType":"address"},{"name":"neededRole","type":"bytes32","internalType":"bytes32"}]},{"type":"error","name":"ERC20InsufficientAllowance","inputs":[{"name":"spender","type":"address","internalType":"address"},{"name":"allowance","type":"uint256","internalType":"uint256"},{"name":"needed","type":"uint256","internalType":"uint256"}]},{"type":"error","name":"ERC20InsufficientBalance","inputs":[{"name":"sender","type":"address","internalType":"address"},{"name":"balance","type":"uint256","internalType":"uint256"},{"name":"needed","type":"uint256","internalType":"uint256"}]},{"type":"error","name":"ERC20InvalidApprover","inputs":[{"name":"approver","type":"address","internalType":"address"}]},{"type":"error","name":"ERC20InvalidReceiver","inputs":[{"name":"receiver","type":"address","internalType":"address"}]},{"type":"error","name":"ERC20InvalidSender","inputs":[{"name":"sender","type":"address","internalType":"address"}]},{"type":"error","name":"ERC20InvalidSpender","inputs":[{"name":"spender","type":"address","internalType":"address"}]}],"bytecode":{"object":"0x608060405234620003115762000f0b803803806200001d8162000315565b928339810190604081830312620003115780516001600160401b03908181116200031157836200004f9184016200033b565b916020938482015183811162000311576200006b92016200033b565b82518281116200021c576003918254916001958684811c9416801562000306575b88851014620002f2578190601f948581116200029f575b5088908583116001146200023c575f9262000230575b50505f1982861b1c191690861b1783555b80519384116200021c5760049586548681811c9116801562000211575b82821014620001fe57838111620001b6575b50809285116001146200014c57509383949184925f9562000140575b50501b925f19911b1c19161790555b6200012f33620003ab565b50604051610abd90816200042e8239f35b015193505f8062000115565b92919084601f198116885f52855f20955f905b898383106200019b575050501062000181575b50505050811b01905562000124565b01519060f8845f19921b161c191690555f80808062000172565b8587015189559097019694850194889350908101906200015f565b875f52815f208480880160051c820192848910620001f4575b0160051c019087905b828110620001e8575050620000f9565b5f8155018790620001d8565b92508192620001cf565b602288634e487b7160e01b5f525260245ffd5b90607f1690620000e7565b634e487b7160e01b5f52604160045260245ffd5b015190505f80620000b9565b90889350601f19831691875f528a5f20925f5b8c82821062000288575050841162000270575b505050811b018355620000ca565b01515f1983881b60f8161c191690555f808062000262565b8385015186558c979095019493840193016200024f565b909150855f52885f208580850160051c8201928b8610620002e8575b918a91869594930160051c01915b828110620002d9575050620000a3565b5f81558594508a9101620002c9565b92508192620002bb565b634e487b7160e01b5f52602260045260245ffd5b93607f16936200008c565b5f80fd5b6040519190601f01601f191682016001600160401b038111838210176200021c57604052565b919080601f84011215620003115782516001600160401b0381116200021c5760209062000371601f8201601f1916830162000315565b9281845282828701011162000311575f5b818110620003975750825f9394955001015290565b858101830151848201840152820162000382565b6001600160a01b03165f8181525f8051602062000eeb833981519152602052604090205460ff1662000428575f8181525f8051602062000eeb83398151915260205260408120805460ff191660011790553391907f2f8788117e7eff1d82e926ec794901d17c78024a50270940304540a733656f0d8180a4600190565b505f9056fe6080604090808252600480361015610015575f80fd5b5f3560e01c91826301ffc9a7146107b65750816306fdde03146106db578163095ea7b31461063357816318160ddd1461061557816323b872dd14610523578163248a9ca3146104f95781632f2ff15d146104d1578163313ce567146101d857816336568abe1461048d57816340c10f191461038b57816370a082311461035557816391d148541461031157816395d89b41146101f2578163a217fddf146101d8578163a9059cbb146101a8578163d53913931461016e578163d547741f14610132575063dd62ed3e146100e6575f80fd5b3461012e578060031936011261012e5760209061010161084f565b610109610865565b9060018060a01b038091165f5260018452825f2091165f528252805f20549051908152f35b5f80fd5b823461012e578060031936011261012e5761016c91356101676001610155610865565b93835f5260056020525f200154610955565b610a13565b005b823461012e575f36600319011261012e57602090517f9f2df0fed2c77648de5860a4cc508cd0818c85b8b8a1ab4ceeef8d981c8956a68152f35b823461012e578060031936011261012e576020906101d16101c761084f565b602435903361087b565b5160018152f35b823461012e575f36600319011261012e57602090515f8152f35b823461012e575f36600319011261012e578051905f835460018160011c9060018316928315610307575b60209384841081146102f4578388529081156102d85750600114610284575b505050829003601f01601f191682019267ffffffffffffffff841183851017610271575082918261026d925282610808565b0390f35b604190634e487b7160e01b5f525260245ffd5b5f878152929350837f8a35acfbc15ff81a39ae7d344fd709f28e8600b4aa8c65c6b64bfe7fe36bd19b5b8385106102c4575050505083010184808061023b565b8054888601830152930192849082016102ae565b60ff1916878501525050151560051b840101905084808061023b565b602289634e487b7160e01b5f525260245ffd5b91607f169161021c565b823461012e578060031936011261012e5760209161032d610865565b90355f5260058352815f209060018060a01b03165f52825260ff815f20541690519015158152f35b823461012e57602036600319011261012e576020906001600160a01b0361037a61084f565b165f525f8252805f20549051908152f35b823461012e578060031936011261012e576103a461084f565b90602435917f9f2df0fed2c77648de5860a4cc508cd0818c85b8b8a1ab4ceeef8d981c8956a6805f526005602052825f20335f5260205260ff835f2054161561046f57506001600160a01b031692831561045a576002549083820180921161044757505f927fddf252ad1be2c89b69c2b068fc378daa952ba7f163c4a11628f55a4df523b3ef9260209260025585855284835280852082815401905551908152a3005b601190634e487b7160e01b5f525260245ffd5b5f602492519163ec442f0560e01b8352820152fd5b825163e2517d3f60e01b815233818701526024810191909152604490fd5b823461012e578060031936011261012e576104a6610865565b90336001600160a01b038316036104c2575061016c9135610a13565b5163334bd91960e11b81529050fd5b823461012e578060031936011261012e5761016c91356104f46001610155610865565b610995565b823461012e57602036600319011261012e57602091355f52600582526001815f2001549051908152f35b90503461012e57606036600319011261012e5761053e61084f565b610546610865565b906044359260018060a01b038216805f526001602052855f20335f52602052855f2054915f198310610581575b6020876101d188888861087b565b8583106105e95781156105d35733156105bd57505f908152600160209081528682203383528152908690209185900390915582906101d1610573565b6024905f885191634a1406b160e11b8352820152fd5b6024905f88519163e602df0560e01b8352820152fd5b8651637dc7a0d960e11b8152339181019182526020820193909352604081018690528291506060010390fd5b823461012e575f36600319011261012e576020906002549051908152f35b823461012e578060031936011261012e5761064c61084f565b6024359033156106c5576001600160a01b03169081156106af5760209350335f5260018452825f20825f52845280835f205582519081527f8c5be1e5ebec7d5bd14f71427d1e84f3dd0314c0f7b2291e5b200ac8c7c3b925843392a35160018152f35b8251634a1406b160e11b81525f81860152602490fd5b825163e602df0560e01b81525f81860152602490fd5b823461012e575f36600319011261012e578051905f60035460018160011c90600183169283156107ac575b60209384841081146102f4578388529081156102d8575060011461075657505050829003601f01601f191682019267ffffffffffffffff841183851017610271575082918261026d925282610808565b60035f908152929350837fc2575a0e9e593c00f959f8c92f12db2869c3395a3b0502d05e2516446f71f85b5b838510610798575050505083010184808061023b565b805488860183015293019284908201610782565b91607f1691610706565b903461012e57602036600319011261012e57359063ffffffff60e01b821680920361012e57602091637965db0b60e01b81149081156107f7575b5015158152f35b6301ffc9a760e01b149050836107f0565b602080825282518183018190529093925f5b82811061083b57505060409293505f838284010152601f8019910116010190565b81810186015184820160400152850161081a565b600435906001600160a01b038216820361012e57565b602435906001600160a01b038216820361012e57565b916001600160a01b0380841692831561093d571692831561092557825f525f60205260405f2054908282106108f35750817fddf252ad1be2c89b69c2b068fc378daa952ba7f163c4a11628f55a4df523b3ef92602092855f525f84520360405f2055845f5260405f20818154019055604051908152a3565b60405163391434e360e21b81526001600160a01b03919091166004820152602481019190915260448101829052606490fd5b60405163ec442f0560e01b81525f6004820152602490fd5b604051634b637e8f60e11b81525f6004820152602490fd5b805f52600560205260405f20335f5260205260ff60405f205416156109775750565b6044906040519063e2517d3f60e01b82523360048301526024820152fd5b90815f52600560205260405f209060018060a01b031690815f5260205260ff60405f205416155f14610a0d57815f52600560205260405f20815f5260205260405f20600160ff1982541617905533917f2f8788117e7eff1d82e926ec794901d17c78024a50270940304540a733656f0d5f80a4600190565b50505f90565b90815f52600560205260405f209060018060a01b031690815f5260205260ff60405f2054165f14610a0d57815f52600560205260405f20815f5260205260405f2060ff19815416905533917ff6391f5c32d9c69d2a47ea670b442974b53935d1edc7fd64eb21e047a839171b5f80a460019056fea26469706673582212203dc0d93a71672925a8f54141d42cb4b98162883ac5dfeb333afed1a17fe0843b64736f6c6343000818003305b8ccbb9d4d8fb16ea74ce3c29a41f1b461fbdaff4714a0d9a8eb05499746bc","linkReferences":{}},"methodIdentifiers":{"DEFAULT_ADMIN_ROLE()":"a217fddf","MINTER_ROLE()":"d5391393","allowance(address,address)":"dd62ed3e","approve(address,uint256)":"095ea7b3","balanceOf(address)":"70a08231","decimals()":"313ce567","getRoleAdmin(bytes32)":"248a9ca3","grantRole(bytes32,address)":"2f2ff15d","hasRole(bytes32,address)":"91d14854","mint(address,uint256)":"40c10f19","name()":"06fdde03","renounceRole(bytes32,address)":"36568abe","revokeRole(bytes32,address)":"d547741f","supportsInterface(bytes4)":"01ffc9a7","symbol()":"95d89b41","totalSupply()":"18160ddd","transfer(address,uint256)":"a9059cbb","transferFrom(address,address,uint256)":"23b872dd"},"id":44}