{"abi":[{"type":"constructor","inputs":[{"name":"xpToken_","type":"address","internalType":"address"},{"name":"chapterNft_","type":"address","internalType":"address"},{"name":"signer_","type":"address","internalType":"address"}],"stateMutability":"nonpayable"},{"type":"function","name":"ADMIN_ROLE","inputs":[],"outputs":[{"name":"","type":"bytes32","internalType":"bytes32"}],"stateMutability":"view"},{"type":"function","name":"DEFAULT_ADMIN_ROLE","inputs":[],"outputs":[{"name":"","type":"bytes32","internalType":"bytes32"}],"stateMutability":"view"},{"type":"function","name":"PROGRESS_TYPEHASH","inputs":[],"outputs":[{"name":"","type":"bytes32","internalType":"bytes32"}],"stateMutability":"view"},{"type":"function","name":"calculateReward","inputs":[{"name":"baseReward","type":"uint256","internalType":"uint256"},{"name":"quizScore","type":"uint256","internalType":"uint256"},{"name":"timeTaken","type":"uint256","internalType":"uint256"}],"outputs":[{"name":"","type":"uint256","internalType":"uint256"}],"stateMutability":"view"},{"type":"function","name":"chapterNft","inputs":[],"outputs":[{"name":"","type":"address","internalType":"contract IChapterNFT"}],"stateMutability":"view"},{"type":"function","name":"claimProgress","inputs":[{"name":"questType","type":"uint8","internalType":"enum QuestType"},{"name":"questId","type":"uint256","internalType":"uint256"},{"name":"quizScore","type":"uint256","internalType":"uint256"},{"name":"timeTaken","type":"uint256","internalType":"uint256"},{"name":"xp","type":"uint256","internalType":"uint256"},{"name":"nonce","type":"uint256","internalType":"uint256"},{"name":"expiry","type":"uint256","internalType":"uint256"},{"name":"signature","type":"bytes","internalType":"bytes"}],"outputs":[],"stateMutability":"nonpayable"},{"type":"function","name":"eip712Domain","inputs":[],"outputs":[{"name":"fields","type":"bytes1","internalType":"bytes1"},{"name":"name","type":"string","internalType":"string"},{"name":"version","type":"string","internalType":"string"},{"name":"chainId","type":"uint256","internalType":"uint256"},{"name":"verifyingContract","type":"address","internalType":"address"},{"name":"salt","type":"bytes32","internalType":"bytes32"},{"name":"extensions","type":"uint256[]","internalType":"uint256[]"}],"stateMutability":"view"},{"type":"function","name":"getProgress","inputs":[{"name":"user","type":"address","internalType":"address"},{"name":"questId","type":"uint256","internalType":"uint256"}],"outputs":[{"name":"","type":"uint256","internalType":"uint256"}],"stateMutability":"view"},{"type":"function","name":"getQuestProgress","inputs":[{"name":"user","type":"address","internalType":"address"},{"name":"questType","type":"uint8","internalType":"enum QuestType"},{"name":"questId","type":"uint256","internalType":"uint256"}],"outputs":[{"name":"","type":"tuple","internalType":"struct GameCore.QuestCompletion","components":[{"name":"completed","type":"bool","internalType":"bool"},{"name":"quizScore","type":"uint256","internalType":"uint256"},{"name":"timeTaken","type":"uint256","internalType":"uint256"},{"name":"timestamp","type":"uint256","internalType":"uint256"}]}],"stateMutability":"view"},{"type":"function","name":"getRoleAdmin","inputs":[{"name":"role","type":"bytes32","internalType":"bytes32"}],"outputs":[{"name":"","type":"bytes32","internalType":"bytes32"}],"stateMutability":"view"},{"type":"function","name":"getUserCompletedQuests","inputs":[{"name":"user","type":"address","internalType":"address"},{"name":"questType","type":"uint8","internalType":"enum QuestType"}],"outputs":[{"name":"","type":"uint256[]","internalType":"uint256[]"}],"stateMutability":"view"},{"type":"function","name":"getUserTotalXP","inputs":[{"name":"user","type":"address","internalType":"address"}],"outputs":[{"name":"","type":"uint256","internalType":"uint256"}],"stateMutability":"view"},{"type":"function","name":"grantRole","inputs":[{"name":"role","type":"bytes32","internalType":"bytes32"},{"name":"account","type":"address","internalType":"address"}],"outputs":[],"stateMutability":"nonpayable"},{"type":"function","name":"hasRole","inputs":[{"name":"role","type":"bytes32","internalType":"bytes32"},{"name":"account","type":"address","internalType":"address"}],"outputs":[{"name":"","type":"bool","internalType":"bool"}],"stateMutability":"view"},{"type":"function","name":"isChapterCompleted","inputs":[{"name":"user","type":"address","internalType":"address"},{"name":"questType","type":"uint8","internalType":"enum QuestType"},{"name":"chapterId","type":"uint256","internalType":"uint256"}],"outputs":[{"name":"","type":"bool","internalType":"bool"}],"stateMutability":"view"},{"type":"function","name":"isCompleted","inputs":[{"name":"user","type":"address","internalType":"address"},{"name":"questId","type":"uint256","internalType":"uint256"}],"outputs":[{"name":"","type":"bool","internalType":"bool"}],"stateMutability":"view"},{"type":"function","name":"leaderboard","inputs":[],"outputs":[{"name":"","type":"address","internalType":"contract ILeaderboard"}],"stateMutability":"view"},{"type":"function","name":"perfectScoreBonus","inputs":[],"outputs":[{"name":"","type":"uint256","internalType":"uint256"}],"stateMutability":"view"},{"type":"function","name":"playerProgress","inputs":[{"name":"","type":"uint8","internalType":"enum QuestType"},{"name":"","type":"address","internalType":"address"},{"name":"","type":"uint256","internalType":"uint256"}],"outputs":[{"name":"completed","type":"bool","internalType":"bool"},{"name":"quizScore","type":"uint256","internalType":"uint256"},{"name":"timeTaken","type":"uint256","internalType":"uint256"},{"name":"timestamp","type":"uint256","internalType":"uint256"}],"stateMutability":"view"},{"type":"function","name":"questToChapter","inputs":[{"name":"","type":"uint8","internalType":"enum QuestType"},{"name":"","type":"uint256","internalType":"uint256"}],"outputs":[{"name":"","type":"uint256","internalType":"uint256"}],"stateMutability":"view"},{"type":"function","name":"renounceRole","inputs":[{"name":"role","type":"bytes32","internalType":"bytes32"},{"name":"callerConfirmation","type":"address","internalType":"address"}],"outputs":[],"stateMutability":"nonpayable"},{"type":"function","name":"revokeRole","inputs":[{"name":"role","type":"bytes32","internalType":"bytes32"},{"name":"account","type":"address","internalType":"address"}],"outputs":[],"stateMutability":"nonpayable"},{"type":"function","name":"rewardSigner","inputs":[],"outputs":[{"name":"","type":"address","internalType":"address"}],"stateMutability":"view"},{"type":"function","name":"setBonusParameters","inputs":[{"name":"_perfectScoreBonus","type":"uint256","internalType":"uint256"},{"name":"_speedBonusThreshold","type":"uint256","internalType":"uint256"},{"name":"_speedBonusMultiplier","type":"uint256","internalType":"uint256"}],"outputs":[],"stateMutability":"nonpayable"},{"type":"function","name":"setChapterNFT","inputs":[{"name":"n","type":"address","internalType":"address"}],"outputs":[],"stateMutability":"nonpayable"},{"type":"function","name":"setLeaderboard","inputs":[{"name":"l","type":"address","internalType":"address"}],"outputs":[],"stateMutability":"nonpayable"},{"type":"function","name":"setQuestToChapter","inputs":[{"name":"questType","type":"uint8","internalType":"enum QuestType"},{"name":"questId","type":"uint256","internalType":"uint256"},{"name":"chapterId","type":"uint256","internalType":"uint256"}],"outputs":[],"stateMutability":"nonpayable"},{"type":"function","name":"setRewardSigner","inputs":[{"name":"s","type":"address","internalType":"address"}],"outputs":[],"stateMutability":"nonpayable"},{"type":"function","name":"setXPToken","inputs":[{"name":"t","type":"address","internalType":"address"}],"outputs":[],"stateMutability":"nonpayable"},{"type":"function","name":"speedBonusMultiplier","inputs":[],"outputs":[{"name":"","type":"uint256","internalType":"uint256"}],"stateMutability":"view"},{"type":"function","name":"speedBonusThreshold","inputs":[],"outputs":[{"name":"","type":"uint256","internalType":"uint256"}],"stateMutability":"view"},{"type":"function","name":"supportsInterface","inputs":[{"name":"interfaceId","type":"bytes4","internalType":"bytes4"}],"outputs":[{"name":"","type":"bool","internalType":"bool"}],"stateMutability":"view"},{"type":"function","name":"usedNonces","inputs":[{"name":"","type":"address","internalType":"address"},{"name":"","type":"uint256","internalType":"uint256"}],"outputs":[{"name":"","type":"bool","internalType":"bool"}],"stateMutability":"view"},{"type":"function","name":"xpToken","inputs":[],"outputs":[{"name":"","type":"address","internalType":"contract IXPToken"}],"stateMutability":"view"},{"type":"event","name":"ChapterCompleted","inputs":[{"name":"user","type":"address","indexed":true,"internalType":"address"},{"name":"questType","type":"uint8","indexed":true,"internalType":"enum QuestType"},{"name":"chapterId","type":"uint256","indexed":true,"internalType":"uint256"},{"name":"tokenId","type":"uint256","indexed":false,"internalType":"uint256"}],"anonymous":false},{"type":"event","name":"EIP712DomainChanged","inputs":[],"anonymous":false},{"type":"event","name":"ProgressClaimed","inputs":[{"name":"user","type":"address","indexed":true,"internalType":"address"},{"name":"questType","type":"uint8","indexed":true,"internalType":"enum QuestType"},{"name":"questId","type":"uint256","indexed":true,"internalType":"uint256"},{"name":"xpAwarded","type":"uint256","indexed":false,"internalType":"uint256"},{"name":"quizScore","type":"uint256","indexed":false,"internalType":"uint256"}],"anonymous":false},{"type":"event","name":"RoleAdminChanged","inputs":[{"name":"role","type":"bytes32","indexed":true,"internalType":"bytes32"},{"name":"previousAdminRole","type":"bytes32","indexed":true,"internalType":"bytes32"},{"name":"newAdminRole","type":"bytes32","indexed":true,"internalType":"bytes32"}],"anonymous":false},{"type":"event","name":"RoleGranted","inputs":[{"name":"role","type":"bytes32","indexed":true,"internalType":"bytes32"},{"name":"account","type":"address","indexed":true,"internalType":"address"},{"name":"sender","type":"address","indexed":true,"internalType":"address"}],"anonymous":false},{"type":"event","name":"RoleRevoked","inputs":[{"name":"role","type":"bytes32","indexed":true,"internalType":"bytes32"},{"name":"account","type":"address","indexed":true,"internalType":"address"},{"name":"sender","type":"address","indexed":true,"internalType":"address"}],"anonymous":false},{"type":"error","name":"AccessControlBadConfirmation","inputs":[]},{"type":"error","name":"AccessControlUnauthorizedAccount","inputs":[{"name":"account","type":"address","internalType":"address"},{"name":"neededRole","type":"bytes32","internalType":"bytes32"}]},{"type":"error","name":"ECDSAInvalidSignature","inputs":[]},{"type":"error","name":"ECDSAInvalidSignatureLength","inputs":[{"name":"length","type":"uint256","internalType":"uint256"}]},{"type":"error","name":"ECDSAInvalidSignatureS","inputs":[{"name":"s","type":"bytes32","internalType":"bytes32"}]},{"type":"error","name":"InvalidShortString","inputs":[]},{"type":"error","name":"StringTooLong","inputs":[{"name":"str","type":"string","internalType":"string"}]}],"bytecode":{"object":"0x610160346200038d576001600160401b0390601f6200226938819003918201601f19168301919084831184841017620003795781606092859260409586528339810103126200038d576200005382620003ad565b906020620000708262000068838701620003ad565b9501620003ad565b928251936200007f8562000391565b600c8552828501956b517565737445746847616d6560a01b8752845191620000a78362000391565b600192838152858101603160f81b8152620000c28962000444565b996101209a8b52620000d4836200060e565b996101409a8b52519020918260e0525190206101009a818c524660a052885191888301937f8b73c3c69bb8fe3d512ecc4cf759cc79239f7b179b0ffacaa9a75d522b39400f85528a84015260608301524660808301523060a083015260a0825260c082019082821090821117620003795788525190206080523060c052611388600a5561012c600b556107d0600c5560018060a01b03908160018060a01b0319938160039716858854161787551683600454161760045516906009541617600955620001a033620003c2565b505f8052600791828452845f20825f52845281855f20555f8052828452845f2060025f52845281855f20555f8052828452845f20815f52845281855f20555f8052828452845f2060045f5284526002855f20555f8052828452845f2060055f5284526002855f20555f8052828452845f2060065f5284526002855f20555f8052828452845f20835f52845280855f20555f8052828452845f2060085f52845280855f20555f8052828452845f2060095f52845280855f20555f8052828452845f20600a5f5284526004855f2055815f52828452845f2084526005855f2055828452845f2060025f5284526005855f2055815f52828452845f20905f5283526005845f2055805f52818352835f2060045f5283526006845f2055805f52818352835f2060055f5283526006845f2055805f52818352835f2060065f5283526006845f2055805f52818352835f20825f52835281845f2055805f52818352835f2060085f52835281845f2055805f52818352835f2060095f52835281845f20555f528152815f2090600a5f52526008815f20555191611a939384620007b6853960805184611840015260a0518461190c015260c0518461180a015260e0518461188f015251836118b501525182610ad401525181610afd0152f35b634e487b7160e01b5f52604160045260245ffd5b5f80fd5b604081019081106001600160401b038211176200037957604052565b51906001600160a01b03821682036200038d57565b6001600160a01b03165f8181525f8051602062002249833981519152602052604090205460ff166200043f575f8181525f805160206200224983398151915260205260408120805460ff191660011790553391907f2f8788117e7eff1d82e926ec794901d17c78024a50270940304540a733656f0d8180a4600190565b505f90565b805160209081811015620004de5750601f8251116200047f57808251920151908083106200047157501790565b825f19910360031b1b161790565b90604051809263305a27a960e01b82528060048301528251908160248401525f935b828510620004c4575050604492505f838284010152601f80199101168101030190fd5b8481018201518686016044015293810193859350620004a1565b906001600160401b03821162000379575f54926001938481811c9116801562000603575b83821014620005ef57601f8111620005b9575b5081601f84116001146200055357509282939183925f9462000547575b50501b915f199060031b1c1916175f5560ff90565b015192505f8062000532565b919083601f1981165f8052845f20945f905b888383106200059e575050501062000585575b505050811b015f5560ff90565b01515f1960f88460031b161c191690555f808062000578565b85870151885590960195948501948793509081019062000565565b5f805284601f845f20920160051c820191601f860160051c015b828110620005e357505062000515565b5f8155018590620005d3565b634e487b7160e01b5f52602260045260245ffd5b90607f169062000502565b8051602090818110156200069a5750601f8251116200063b57808251920151908083106200047157501790565b90604051809263305a27a960e01b82528060048301528251908160248401525f935b82851062000680575050604492505f838284010152601f80199101168101030190fd5b84810182015186860160440152938101938593506200065d565b9192916001600160401b038111620003795760019182548381811c91168015620007aa575b82821014620005ef57601f811162000774575b5080601f8311600114620007105750819293945f9262000704575b50505f19600383901b1c191690821b17905560ff90565b015190505f80620006ed565b90601f19831695845f52825f20925f905b8882106200075c575050838596971062000743575b505050811b01905560ff90565b01515f1960f88460031b161c191690555f808062000736565b80878596829496860151815501950193019062000721565b835f5283601f835f20920160051c820191601f850160051c015b8281106200079e575050620006d2565b5f81550184906200078e565b90607f1690620006bf56fe6080806040526004361015610012575f80fd5b5f905f3560e01c90816301ffc9a7146110775750806304cc850914611034578063195f58e914610f8f578063248a9ca314610f625780632f2ff15d14610f25578063323f24ab14610efd5780633453624814610ee057806336568abe14610e995780633c98c72914610e1b5780633f01bad414610df85780633f482d0c14610dd05780634f79d39d14610d9657806351563a9014610d595780636a8a689414610d105780636f2100f814610be3578063722611d914610bc657806375b238fc14610a2e5780637685e68814610b9f57806384b0196e14610abf57806391d1485414610a7657806392d14ea014610a33578063a217fddf14610a2e578063a8e62b9714610a0d578063ae5014b1146109e5578063b7d6b8181461093a578063c2ddc7fd146108af578063c69d65d11461086c578063ca2ea12d1461084f578063d547741f14610810578063d5859099146107ee578063eb56b740146107c6578063f1a2de7214610783578063fd5f3ccc146101dc5763fe72b86114610194575f80fd5b346101d95760603660031901126101d95760043560028110156101d5576101c2906101bd6113df565b611121565b6024358252602052604435604082205580f35b5080fd5b80fd5b503461061a5761010036600319011261061a576002600435101561061a5767ffffffffffffffff60e4351161061a5736602360e43501121561061a5767ffffffffffffffff60e435600401351161061a5736602460e4356004013560e43501011161061a5760c435421161074c57335f52600860205260405f2060a4355f5260205260ff60405f20541661071a57610275600435611121565b6024355f5260205260405f2054156106dd575f6040519060208201917ffab080836f99a701fae3fb6f2ac17f00585d424c5091f9db835875a5914af7d983523360408201526004356060820152602435608082015260443560a082015260643560c082015260843560e082015260a43561010082015261012060c435818301528152610140810181811067ffffffffffffffff8211176106c95761038e9361038592604292604052519020610328611807565b906040519161190160f01b835260028301526022820152206040519061035e6020601f19601f60e435600401350116018361125c565b60e43560048101358084529060240160208401375f602060e4356004013584010152611932565b9093919361196c565b6009546001600160a01b03929083169083160361069357335f52600860205260405f2060a4355f5260205260405f2060ff19906001828254161790556103d56004356110f6565b335f5260205260405f206024355f5260205260ff60405f20541661064e5760036040519161040283611210565b6001835260208301604435815260408401906064358252606085019242845261042c6004356110f6565b335f5260205260405f206024355f5260205260ff60405f209651151591875416911617855551600185015551600284015551910155610472606435604435608435611374565b918060035416803b1561061a576040516340c10f1960e01b80825233600483015260248201869052915f908290604490829084905af1801561064357610630575b506104bf600435611121565b60243586526020526040852054906104da8260043533611567565b6105ba575b50506005541680610543575b5061052f57604051908152604435602082015260243590600435907f8307f92f4a5c5125d1252a24620d101534d02fdf370d344c57a1d50fb1a37a1260403392a480f35b634e487b7160e01b82526021600452602482fd5b9050825f91803b156101d557818091608460405180948193635c16cf9960e11b835233600484015289602484015260ff60043516604484015260243560648401525af180156105af57610597575b506104eb565b6105a09061122c565b6105ab57825f610591565b8280fd5b6040513d84823e3d90fd5b60048054604051928352339183019190915260248201929092529060209082906044908290899087165af18015610625576105f6575b806104df565b602090813d831161061e575b61060c818361125c565b8101031261061a575f6105f0565b5f80fd5b503d610602565b6040513d87823e3d90fd5b61063b91955061122c565b5f935f6104b3565b6040513d5f823e3d90fd5b60405162461bcd60e51b815260206004820152601760248201527f517565737420616c726561647920636f6d706c657465640000000000000000006044820152606490fd5b60405162461bcd60e51b815260206004820152600e60248201526d24b73b30b634b21039b4b3b732b960911b6044820152606490fd5b634e487b7160e01b5f52604160045260245ffd5b60405162461bcd60e51b8152602060048201526015602482015274496e76616c6964207175657374206d617070696e6760581b6044820152606490fd5b60405162461bcd60e51b815260206004820152600a602482015269139bdb98d9481d5cd95960b21b6044820152606490fd5b60405162461bcd60e51b815260206004820152600f60248201526e159bdd58da195c88195e1c1a5c9959608a1b6044820152606490fd5b3461061a57602036600319011261061a5761079c6110ca565b6107a46113df565b600580546001600160a01b0319166001600160a01b0392909216919091179055005b3461061a575f36600319011261061a576005546040516001600160a01b039091168152602090f35b3461061a576107fc366111f6565b916108056113df565b600a55600b55600c55005b3461061a57604036600319011261061a5761084d60043561082f6110e0565b90805f526002602052610848600160405f200154611435565b6114f3565b005b3461061a575f36600319011261061a576020600b54604051908152f35b3461061a57602036600319011261061a576108856110ca565b61088d6113df565b600980546001600160a01b0319166001600160a01b0392909216919091179055005b3461061a5760208060031936011261061a576108c96110ca565b6003546040516370a0823160e01b81526001600160a01b03928316600482015291839183916024918391165afa908115610643575f9161090d575b50604051908152f35b90508181813d8311610933575b610924818361125c565b8101031261061a575182610904565b503d61091a565b3461061a5761097261094b36611138565b92905f606060405161095c81611210565b82815282602082015282604082015201526110f6565b9060018060a01b03165f5260205260405f20905f52602052608060405f2060405161099c81611210565b60ff825416151591828252600181015460208301908152606060036002840154936040860194855201549301928352604051938452516020840152516040830152516060820152f35b3461061a575f36600319011261061a576003546040516001600160a01b039091168152602090f35b3461061a576020610a26610a20366111f6565b91611374565b604051908152f35b61119e565b3461061a57602036600319011261061a57610a4c6110ca565b610a546113df565b600380546001600160a01b0319166001600160a01b0392909216919091179055005b3461061a57604036600319011261061a57610a8f6110e0565b6004355f52600260205260405f209060018060a01b03165f52602052602060ff60405f2054166040519015158152f35b3461061a575f36600319011261061a57610af87f0000000000000000000000000000000000000000000000000000000000000000611612565b610b217f0000000000000000000000000000000000000000000000000000000000000000611736565b9060405191602083019280841067ffffffffffffffff8511176106c957610b7b610b9b92610b6d956040525f8352604051958695600f60f81b875260e0602088015260e08701906111b8565b9085820360408701526111b8565b904660608501523060808501525f60a085015283820360c085015261116b565b0390f35b3461061a57604036600319011261061a576020610a26610bbd6110ca565b602435906112e0565b3461061a575f36600319011261061a576020600a54604051908152f35b3461061a57604036600319011261061a57610bfc6110ca565b60243590600282101561061a5760405191610160830183811067ffffffffffffffff8211176106c957604052600a91600a845260209261014036858701376001925f926001600160a01b031690845b83811115610cbd5750505050610c608161127e565b93610c6e604051958661125c565b818552601f19610c7d8361127e565b0136858701375f5b828110610c9f5760405185815280610b9b8188018961116b565b80610cab8592846112b8565b51610cb682896112b8565b5201610c85565b610cc6826110f6565b835f52875260405f20815f52875260ff60405f205416610cef575b610cea90611296565b610c4b565b93610d088186610d02610cea948c6112b8565b52611296565b949050610ce1565b3461061a57604036600319011261061a576001600160a01b03610d316110ca565b165f52600860205260405f206024355f52602052602060ff60405f2054166040519015158152f35b3461061a57604036600319011261061a57600435600281101561061a57610d7f90611121565b6024355f52602052602060405f2054604051908152f35b3461061a575f36600319011261061a5760206040517ffab080836f99a701fae3fb6f2ac17f00585d424c5091f9db835875a5914af7d98152f35b3461061a575f36600319011261061a576004546040516001600160a01b039091168152602090f35b3461061a576020610e11610e0b36611138565b91611567565b6040519015158152f35b3461061a57606036600319011261061a57600435600281101561061a57610e49610e436110e0565b916110f6565b9060018060a01b03165f5260205260405f206044355f52602052608060405f2060ff8154169060018101549060036002820154910154916040519315158452602084015260408301526060820152f35b3461061a57604036600319011261061a57610eb26110e0565b336001600160a01b03821603610ece5761084d906004356114f3565b60405163334bd91960e11b8152600490fd5b3461061a575f36600319011261061a576020600c54604051908152f35b3461061a575f36600319011261061a576009546040516001600160a01b039091168152602090f35b3461061a57604036600319011261061a5761084d600435610f446110e0565b90805f526002602052610f5d600160405f200154611435565b611475565b3461061a57602036600319011261061a576004355f5260026020526020600160405f200154604051908152f35b3461061a57604036600319011261061a57610fa86110ca565b6001600160a01b03165f8181527f54cdd369e4e8a8515e52ca72ec816c2101831ad1f18bf44102ed171459c9b4f860209081526040808320602435808552908352922054909260ff90911691908215611008575b50506040519015158152f35b90915060015f526006835260405f20905f52825260405f20905f52815260ff60405f2054168280610ffc565b3461061a57602036600319011261061a5761104d6110ca565b6110556113df565b600480546001600160a01b0319166001600160a01b0392909216919091179055005b3461061a57602036600319011261061a576004359063ffffffff60e01b821680920361061a57602091637965db0b60e01b81149081156110b9575b5015158152f35b6301ffc9a760e01b149050836110b2565b600435906001600160a01b038216820361061a57565b602435906001600160a01b038216820361061a57565b600281101561110d575f52600660205260405f2090565b634e487b7160e01b5f52602160045260245ffd5b600281101561110d575f52600760205260405f2090565b606090600319011261061a576004356001600160a01b038116810361061a5790602435600281101561061a579060443590565b9081518082526020808093019301915f5b82811061118a575050505090565b83518552938101939281019260010161117c565b3461061a575f36600319011261061a5760206040515f8152f35b91908251928382525f5b8481106111e2575050825f602080949584010152601f8019910116010190565b6020818301810151848301820152016111c2565b606090600319011261061a57600435906024359060443590565b6080810190811067ffffffffffffffff8211176106c957604052565b67ffffffffffffffff81116106c957604052565b6040810190811067ffffffffffffffff8211176106c957604052565b90601f8019910116810190811067ffffffffffffffff8211176106c957604052565b67ffffffffffffffff81116106c95760051b60200190565b5f1981146112a45760010190565b634e487b7160e01b5f52601160045260245ffd5b80518210156112cc5760209160051b010190565b634e487b7160e01b5f52603260045260245ffd5b6001600160a01b03165f8181527f54cdd369e4e8a8515e52ca72ec816c2101831ad1f18bf44102ed171459c9b4f860209081526040808320858452825291829020549293919260ff166113585760ff9360015f5260068252835f20905f528152825f20915f52525f205416611353575f90565b606490565b50505050606490565b818102929181159184041417156112a457565b91826064809310156113bc575b5080151590816113af575b50611395575090565b90600c5482018083116112a4576113ab91611361565b0490565b9050600b5410155f61138c565b909250600a548201908183116112a45782916113d791611361565b04915f611381565b335f9081527fac33ff75c19e70fe83507db0d683fd3465c996598dc972688b7ace676c89077b602052604090205460ff161561141757565b60405163e2517d3f60e01b81523360048201525f6024820152604490fd5b805f52600260205260405f20335f5260205260ff60405f205416156114575750565b6044906040519063e2517d3f60e01b82523360048301526024820152fd5b90815f52600260205260405f209060018060a01b031690815f5260205260ff60405f205416155f146114ed57815f52600260205260405f20815f5260205260405f20600160ff1982541617905533917f2f8788117e7eff1d82e926ec794901d17c78024a50270940304540a733656f0d5f80a4600190565b50505f90565b90815f52600260205260405f209060018060a01b031690815f5260205260ff60405f2054165f146114ed57815f52600260205260405f20815f5260205260405f2060ff19815416905533917ff6391f5c32d9c69d2a47ea670b442974b53935d1edc7fd64eb21e047a839171b5f80a4600190565b5f9283929060015b600a8111156115905750505050801515918261158a57505090565b14919050565b61159983611121565b815f526020908152604083815f2054146115be575b50506115b990611296565b61156f565b6115ca60ff9297611296565b966115d4866110f6565b6001600160a01b0388165f9081529082528281208582529091522054166115fd575b5f806115ae565b9461160a6115b991611296565b9590506115f6565b60ff81146116505760ff811690601f821161163e576040519161163483611240565b8252602082015290565b604051632cd44ac360e21b8152600490fd5b506040515f8054906001908260011c6001841692831561172c575b60209485831085146117185782875286949081156116f8575060011461169d575b505061169a9250038261125c565b90565b5f8080527f290decd9548b62a8d60345a988386fc84ba6bc95484008f6362f93160ef3e56395935091905b8183106116e057505061169a93508201015f8061168c565b855487840185015294850194869450918301916116c8565b91505061169a94925060ff191682840152151560051b8201015f8061168c565b634e487b7160e01b5f52602260045260245ffd5b90607f169061166b565b60ff81146117585760ff811690601f821161163e576040519161163483611240565b506040515f60018054918260011c600184169283156117fd575b60209485831085146117185782875286949081156116f857506001146117a057505061169a9250038261125c565b9093915060015f527fb10e2d527612073b26eecdfd717e6a320cf44b4afac2b0732d9fcbe2b7fa0cf6935f915b8183106117e557505061169a93508201015f8061168c565b855487840185015294850194869450918301916117cd565b90607f1690611772565b307f00000000000000000000000000000000000000000000000000000000000000006001600160a01b03161480611909575b15611862577f000000000000000000000000000000000000000000000000000000000000000090565b60405160208101907f8b73c3c69bb8fe3d512ecc4cf759cc79239f7b179b0ffacaa9a75d522b39400f82527f000000000000000000000000000000000000000000000000000000000000000060408201527f000000000000000000000000000000000000000000000000000000000000000060608201524660808201523060a082015260a0815260c0810181811067ffffffffffffffff8211176106c95760405251902090565b507f00000000000000000000000000000000000000000000000000000000000000004614611839565b81519190604183036119625761195b9250602082015190606060408401519301515f1a906119db565b9192909190565b50505f9160029190565b600481101561110d578061197e575050565b600181036119985760405163f645eedf60e01b8152600490fd5b600281036119b95760405163fce698f760e01b815260048101839052602490fd5b6003146119c35750565b602490604051906335e2f38360e21b82526004820152fd5b91907f7fffffffffffffffffffffffffffffff5d576e7357a4501ddfe92f46681b20a08411611a52579160209360809260ff5f9560405194855216868401526040830152606082015282805260015afa15610643575f516001600160a01b03811615611a4857905f905f90565b505f906001905f90565b5050505f916003919056fea264697066735822122083760ace9e12e34f27bf72ead38f8bb6d23ec1cafb52beac7c813c59f303f47564736f6c63430008180033ac33ff75c19e70fe83507db0d683fd3465c996598dc972688b7ace676c89077b","linkReferences":{}},"methodIdentifiers":{"ADMIN_ROLE()":"75b238fc","DEFAULT_ADMIN_ROLE()":"a217fddf","PROGRESS_TYPEHASH()":"4f79d39d","calculateReward(uint256,uint256,uint256)":"a8e62b97","chapterNft()":"3f482d0c","claimProgress(uint8,uint256,uint256,uint256,uint256,uint256,uint256,bytes)":"fd5f3ccc","eip712Domain()":"84b0196e","getProgress(address,uint256)":"7685e688","getQuestProgress(address,uint8,uint256)":"b7d6b818","getRoleAdmin(bytes32)":"248a9ca3","getUserCompletedQuests(address,uint8)":"6f2100f8","getUserTotalXP(address)":"c2ddc7fd","grantRole(bytes32,address)":"2f2ff15d","hasRole(bytes32,address)":"91d14854","isChapterCompleted(address,uint8,uint256)":"3f01bad4","isCompleted(address,uint256)":"195f58e9","leaderboard()":"eb56b740","perfectScoreBonus()":"722611d9","playerProgress(uint8,address,uint256)":"3c98c729","questToChapter(uint8,uint256)":"51563a90","renounceRole(bytes32,address)":"36568abe","revokeRole(bytes32,address)":"d547741f","rewardSigner()":"323f24ab","setBonusParameters(uint256,uint256,uint256)":"d5859099","setChapterNFT(address)":"04cc8509","setLeaderboard(address)":"f1a2de72","setQuestToChapter(uint8,uint256,uint256)":"fe72b861","setRewardSigner(address)":"c69d65d1","setXPToken(address)":"92d14ea0","speedBonusMultiplier()":"34536248","speedBonusThreshold()":"ca2ea12d","supportsInterface(bytes4)":"01ffc9a7","usedNonces(address,uint256)":"6a8a6894","xpToken()":"ae5014b1"},"id":42}