{"abi":[{"type":"constructor","inputs":[{"name":"name_","type":"string","internalType":"string"},{"name":"symbol_","type":"string","internalType":"string"},{"name":"baseURI_","type":"string","internalType":"string"}],"stateMutability":"nonpayable"},{"type":"function","name":"DEFAULT_ADMIN_ROLE","inputs":[],"outputs":[{"name":"","type":"bytes32","internalType":"bytes32"}],"stateMutability":"view"},{"type":"function","name":"MINTER_ROLE","inputs":[],"outputs":[{"name":"","type":"bytes32","internalType":"bytes32"}],"stateMutability":"view"},{"type":"function","name":"approve","inputs":[{"name":"to","type":"address","internalType":"address"},{"name":"tokenId","type":"uint256","internalType":"uint256"}],"outputs":[],"stateMutability":"nonpayable"},{"type":"function","name":"balanceOf","inputs":[{"name":"owner","type":"address","internalType":"address"}],"outputs":[{"name":"","type":"uint256","internalType":"uint256"}],"stateMutability":"view"},{"type":"function","name":"baseURI","inputs":[],"outputs":[{"name":"","type":"string","internalType":"string"}],"stateMutability":"view"},{"type":"function","name":"getApproved","inputs":[{"name":"tokenId","type":"uint256","internalType":"uint256"}],"outputs":[{"name":"","type":"address","internalType":"address"}],"stateMutability":"view"},{"type":"function","name":"getRoleAdmin","inputs":[{"name":"role","type":"bytes32","internalType":"bytes32"}],"outputs":[{"name":"","type":"bytes32","internalType":"bytes32"}],"stateMutability":"view"},{"type":"function","name":"grantRole","inputs":[{"name":"role","type":"bytes32","internalType":"bytes32"},{"name":"account","type":"address","internalType":"address"}],"outputs":[],"stateMutability":"nonpayable"},{"type":"function","name":"hasRole","inputs":[{"name":"role","type":"bytes32","internalType":"bytes32"},{"name":"account","type":"address","internalType":"address"}],"outputs":[{"name":"","type":"bool","internalType":"bool"}],"stateMutability":"view"},{"type":"function","name":"isApprovedForAll","inputs":[{"name":"owner","type":"address","internalType":"address"},{"name":"operator","type":"address","internalType":"address"}],"outputs":[{"name":"","type":"bool","internalType":"bool"}],"stateMutability":"view"},{"type":"function","name":"mint","inputs":[{"name":"to","type":"address","internalType":"address"},{"name":"","type":"uint256","internalType":"uint256"}],"outputs":[{"name":"","type":"uint256","internalType":"uint256"}],"stateMutability":"nonpayable"},{"type":"function","name":"name","inputs":[],"outputs":[{"name":"","type":"string","internalType":"string"}],"stateMutability":"view"},{"type":"function","name":"ownerOf","inputs":[{"name":"tokenId","type":"uint256","internalType":"uint256"}],"outputs":[{"name":"","type":"address","internalType":"address"}],"stateMutability":"view"},{"type":"function","name":"renounceRole","inputs":[{"name":"role","type":"bytes32","internalType":"bytes32"},{"name":"callerConfirmation","type":"address","internalType":"address"}],"outputs":[],"stateMutability":"nonpayable"},{"type":"function","name":"revokeRole","inputs":[{"name":"role","type":"bytes32","internalType":"bytes32"},{"name":"account","type":"address","internalType":"address"}],"outputs":[],"stateMutability":"nonpayable"},{"type":"function","name":"safeTransferFrom","inputs":[{"name":"from","type":"address","internalType":"address"},{"name":"to","type":"address","internalType":"address"},{"name":"tokenId","type":"uint256","internalType":"uint256"}],"outputs":[],"stateMutability":"nonpayable"},{"type":"function","name":"safeTransferFrom","inputs":[{"name":"from","type":"address","internalType":"address"},{"name":"to","type":"address","internalType":"address"},{"name":"tokenId","type":"uint256","internalType":"uint256"},{"name":"data","type":"bytes","internalType":"bytes"}],"outputs":[],"stateMutability":"nonpayable"},{"type":"function","name":"setApprovalForAll","inputs":[{"name":"operator","type":"address","internalType":"address"},{"name":"approved","type":"bool","internalType":"bool"}],"outputs":[],"stateMutability":"nonpayable"},{"type":"function","name":"setBaseURI","inputs":[{"name":"uri","type":"string","internalType":"string"}],"outputs":[],"stateMutability":"nonpayable"},{"type":"function","name":"supportsInterface","inputs":[{"name":"interfaceId","type":"bytes4","internalType":"bytes4"}],"outputs":[{"name":"","type":"bool","internalType":"bool"}],"stateMutability":"view"},{"type":"function","name":"symbol","inputs":[],"outputs":[{"name":"","type":"string","internalType":"string"}],"stateMutability":"view"},{"type":"function","name":"tokenURI","inputs":[{"name":"tokenId","type":"uint256","internalType":"uint256"}],"outputs":[{"name":"","type":"string","internalType":"string"}],"stateMutability":"view"},{"type":"function","name":"transferFrom","inputs":[{"name":"from","type":"address","internalType":"address"},{"name":"to","type":"address","internalType":"address"},{"name":"tokenId","type":"uint256","internalType":"uint256"}],"outputs":[],"stateMutability":"nonpayable"},{"type":"event","name":"Approval","inputs":[{"name":"owner","type":"address","indexed":true,"internalType":"address"},{"name":"approved","type":"address","indexed":true,"internalType":"address"},{"name":"tokenId","type":"uint256","indexed":true,"internalType":"uint256"}],"anonymous":false},{"type":"event","name":"ApprovalForAll","inputs":[{"name":"owner","type":"address","indexed":true,"internalType":"address"},{"name":"operator","type":"address","indexed":true,"internalType":"address"},{"name":"approved","type":"bool","indexed":false,"internalType":"bool"}],"anonymous":false},{"type":"event","name":"RoleAdminChanged","inputs":[{"name":"role","type":"bytes32","indexed":true,"internalType":"bytes32"},{"name":"previousAdminRole","type":"bytes32","indexed":true,"internalType":"bytes32"},{"name":"newAdminRole","type":"bytes32","indexed":true,"internalType":"bytes32"}],"anonymous":false},{"type":"event","name":"RoleGranted","inputs":[{"name":"role","type":"bytes32","indexed":true,"internalType":"bytes32"},{"name":"account","type":"address","indexed":true,"internalType":"address"},{"name":"sender","type":"address","indexed":true,"internalType":"address"}],"anonymous":false},{"type":"event","name":"RoleRevoked","inputs":[{"name":"role","type":"bytes32","indexed":true,"internalType":"bytes32"},{"name":"account","type":"address","indexed":true,"internalType":"address"},{"name":"sender","type":"address","indexed":true,"internalType":"address"}],"anonymous":false},{"type":"event","name":"Transfer","inputs":[{"name":"from","type":"address","indexed":true,"internalType":"address"},{"name":"to","type":"address","indexed":true,"internalType":"address"},{"name":"tokenId","type":"uint256","indexed":true,"internalType":"uint256"}],"anonymous":false},{"type":"error","name":"AccessControlBadConfirmation","inputs":[]},{"type":"error","name":"AccessControlUnauthorizedAccount","inputs":[{"name":"account","type":"address","internalType":"address"},{"name":"neededRole","type":"bytes32","internalType":"bytes32"}]},{"type":"error","name":"ERC721IncorrectOwner","inputs":[{"name":"sender","type":"address","internalType":"address"},{"name":"tokenId","type":"uint256","internalType":"uint256"},{"name":"owner","type":"address","internalType":"address"}]},{"type":"error","name":"ERC721InsufficientApproval","inputs":[{"name":"operator","type":"address","internalType":"address"},{"name":"tokenId","type":"uint256","internalType":"uint256"}]},{"type":"error","name":"ERC721InvalidApprover","inputs":[{"name":"approver","type":"address","internalType":"address"}]},{"type":"error","name":"ERC721InvalidOperator","inputs":[{"name":"operator","type":"address","internalType":"address"}]},{"type":"error","name":"ERC721InvalidOwner","inputs":[{"name":"owner","type":"address","internalType":"address"}]},{"type":"error","name":"ERC721InvalidReceiver","inputs":[{"name":"receiver","type":"address","internalType":"address"}]},{"type":"error","name":"ERC721InvalidSender","inputs":[{"name":"sender","type":"address","internalType":"address"}]},{"type":"error","name":"ERC721NonexistentToken","inputs":[{"name":"tokenId","type":"uint256","internalType":"uint256"}]}],"bytecode":{"object":"0x608060405234620004425762001a3e803803806200001d8162000446565b9283398101606082820312620004425781516001600160401b03908181116200044257826200004e9185016200046c565b91602093848101518381116200044257826200006c9183016200046c565b91604082015184811162000442576200008692016200046c565b9383519183831162000292575f54926001958685811c9516801562000437575b8486101462000273578190601f95868111620003e4575b50849086831160011462000380575f9262000374575b50505f19600383901b1c191690861b175f555b80519084821162000292578554908682811c9216801562000369575b848310146200027357818584931162000316575b508390858311600114620002b2575f92620002a6575b50505f19600383901b1c191690851b1784555b6200014a33620004dc565b50845192831162000292576008548481811c9116801562000287575b8282101462000273578281116200022a575b5080918311600114620001c457508192935f92620001b8575b50505f19600383901b1c191690821b176008555b6007556040516114bf90816200055f8239f35b015190505f8062000191565b90601f1983169460085f52825f20925f905b8782106200021257505083859610620001f9575b505050811b01600855620001a5565b01515f1960f88460031b161c191690555f8080620001ea565b808785968294968601518155019501930190620001d6565b60085f52815f208380860160051c82019284871062000269575b0160051c019085905b8281106200025d57505062000178565b5f81550185906200024d565b9250819262000244565b634e487b7160e01b5f52602260045260245ffd5b90607f169062000166565b634e487b7160e01b5f52604160045260245ffd5b015190505f806200012c565b90879350601f19831691845f52855f20925f5b87828210620002ff5750508411620002e6575b505050811b0184556200013f565b01515f1960f88460031b161c191690555f8080620002d8565b8385015186558b97909501949384019301620002c5565b909150865f52835f208580850160051c8201928686106200035f575b918991869594930160051c01915b8281106200035057505062000116565b5f815585945089910162000340565b9250819262000332565b91607f169162000102565b015190505f80620000d3565b90889350601f198316915f8052865f20925f5b88828210620003cd5750508411620003b4575b505050811b015f55620000e6565b01515f1960f88460031b161c191690555f8080620003a6565b8385015186558c9790950194938401930162000393565b9091505f8052845f208680850160051c8201928786106200042d575b918a91869594930160051c01915b8281106200041e575050620000bd565b5f81558594508a91016200040e565b9250819262000400565b94607f1694620000a6565b5f80fd5b6040519190601f01601f191682016001600160401b038111838210176200029257604052565b919080601f84011215620004425782516001600160401b0381116200029257602090620004a2601f8201601f1916830162000446565b9281845282828701011162000442575f5b818110620004c85750825f9394955001015290565b8581018301518482018401528201620004b3565b6001600160a01b03165f8181525f8051602062001a1e833981519152602052604090205460ff1662000559575f8181525f8051602062001a1e83398151915260205260408120805460ff191660011790553391907f2f8788117e7eff1d82e926ec794901d17c78024a50270940304540a733656f0d8180a4600190565b505f9056fe6080604090808252600480361015610015575f80fd5b5f3560e01c91826301ffc9a714610d3e5750816306fdde0314610c91578163081812fc14610c59578163095ea7b314610b7957816323b872dd14610b62578163248a9ca314610b385781632f2ff15d14610b1057816336568abe14610acc57816340c10f191461083657816342842e0e1461080857816355f804b3146106755781636352211e146106465781636c0360eb146105aa57816370a082311461055657816391d148541461051257816395d89b411461043e578163a217fddf14610424578163a22cb4651461036d578163b88d4fde146102dd578163c87b56dd146101e4578163d5391393146101aa578163d547741f1461016e575063e985e9c51461011d575f80fd5b3461016a578060031936011261016a57602090610138610e08565b610140610e1e565b9060018060a01b038091165f5260058452825f2091165f52825260ff815f20541690519015158152f35b5f80fd5b823461016a578060031936011261016a576101a891356101a36001610191610e1e565b93835f5260066020525f200154611106565b6111c4565b005b823461016a575f36600319011261016a57602090517f9f2df0fed2c77648de5860a4cc508cd0818c85b8b8a1ab4ceeef8d981c8956a68152f35b90503461016a576020918260031936011261016a5761020e839235610208816110cc565b50611382565b81519384915f9060085461022181610e69565b906001908181169081156102c05750600114610276575b5050918161025484610272979694610263965194859201610dc2565b0103601f198101865285610ed1565b51928284938452830190610de3565b0390f35b9091925060085f525f8051602061146a833981519152905f915b8383106102a857505050830182019080610254610238565b8054838b018701528996508895909201918101610290565b60ff19168688015250508015150284018301915080610254610238565b823461016a57608036600319011261016a576102f7610e08565b6102ff610e1e565b604435916064359467ffffffffffffffff861161016a573660238701121561016a5785013561033961033082610ef3565b95519586610ed1565b808552366024828801011161016a576020815f9260246101a899018389013786010152610367838383610f0f565b33611238565b823461016a578060031936011261016a57610386610e08565b906024359182151580930361016a57331561040e576001600160a01b03169283156103f95750335f526005602052805f20835f52602052805f2060ff1981541660ff8416179055519081527f17307eab39ab6107e8899845ad3d59bd9653f200f220920489ca2b5937696c3160203392a3005b836024925191630b61174360e31b8352820152fd5b815163a9fbf51f60e01b81525f81860152602490fd5b823461016a575f36600319011261016a57602090515f8152f35b823461016a575f36600319011261016a578051905f90826001926001549361046585610e69565b90818452602095866001821691825f146104f0575050600114610495575b50506102729291610263910385610ed1565b9085925060015f527fb10e2d527612073b26eecdfd717e6a320cf44b4afac2b0732d9fcbe2b7fa0cf6915f925b8284106104d85750505082010181610263610483565b8054848a0186015288955087949093019281016104c2565b60ff19168682015292151560051b850190920192508391506102639050610483565b823461016a578060031936011261016a5760209161052e610e1e565b90355f5260068352815f209060018060a01b03165f52825260ff815f20541690519015158152f35b823461016a57602036600319011261016a576001600160a01b03610578610e08565b16801561059457602092505f5260038252805f20549051908152f35b81516322718ad960e21b81525f81850152602490fd5b823461016a575f36600319011261016a5780516008549091825f6105cd84610e69565b808352602094600190866001821691825f146104f05750506001146105fe5750506102729291610263910385610ed1565b9085925060085f525f8051602061146a833981519152915f925b82841061062e5750505082010181610263610483565b8054848a018601528895508794909301928101610618565b823461016a57602036600319011261016a57610664602092356110cc565b90516001600160a01b039091168152f35b90503461016a576020918260031936011261016a57813567ffffffffffffffff9283821161016a573660238301121561016a578181013593841161016a57602492366024868501011161016a575f805260068652805f20335f52865260ff815f205416156107eb5750506106ea600854610e69565b601f81116107a0575b505f91601f841160011461073257508293505f92610724575b50505f19600383901b1c191660019190911b17600855005b602492500101355f8061070c565b91601f1984165f8051602061146a833981519152935f905b828210610785575050600195508411610769575b505050811b01600855005b01602401355f19600384901b60f8161c191690555f808061075e565b9092948760018192848989010135815501960193019061074a565b5f8051602061146a833981519152601f850160051c8101918686106107e1575b601f0160051c01905b8181106107d657506106f3565b5f81556001016107c9565b90915081906107c0565b60449250519063e2517d3f60e01b825233908201525f6024820152fd5b823461016a576101a89061081b36610e34565b9192519261082884610ea1565b5f8452610367838383610f0f565b823461016a578060031936011261016a5761084f610e08565b907f9f2df0fed2c77648de5860a4cc508cd0818c85b8b8a1ab4ceeef8d981c8956a692835f5260209360068552825f20335f52855260ff835f20541615610ab157506007549261089e846110aa565b60075582516108ac81610ea1565b5f81526001600160a01b0382811692908315610a9b57865f5260028852855f20541686848215159283610a6a575b5f82815260038c528981208054600101905583815260028c5289812080546001600160a01b031916841790557fddf252ad1be2c89b69c2b068fc378daa952ba7f163c4a11628f55a4df523b3ef9080a4610a54573b61093d575b50505051908152f35b839294919351868180610977630a85bd0160e11b95868352338b8401525f6024840152876044840152608060648401526084830190610de3565b03815f895af15f9181610a14575b506109e2575050503d5f146109da573d9361099f85610ef3565b946109ac83519687610ed1565b85523d5f8287013e5b845194856109d457505051633250574960e11b81529182015260249150fd5b85925001fd5b6060936109b5565b91949293916001600160e01b03191603610a00575050838080610934565b6024925191633250574960e11b8352820152fd5b9091508781813d8311610a4d575b610a2c8183610ed1565b8101031261016a57516001600160e01b03198116810361016a579088610985565b503d610a22565b84516339e3563760e11b81525f81860152602490fd5b5f83815260046020526040812080546001600160a01b031916905581815260038c5289902080545f190190556108da565b8551633250574960e11b81525f81870152602490fd5b604492519163e2517d3f60e01b835233908301526024820152fd5b823461016a578060031936011261016a57610ae5610e1e565b90336001600160a01b03831603610b0157506101a891356111c4565b5163334bd91960e11b81529050fd5b823461016a578060031936011261016a576101a89135610b336001610191610e1e565b611146565b823461016a57602036600319011261016a57602091355f52600682526001815f2001549051908152f35b3461016a576101a8610b7336610e34565b91610f0f565b823461016a578060031936011261016a57610b92610e08565b91602435610b9f816110cc565b33151580610c46575b80610c1f575b610c09576001600160a01b039485169482918691167f8c5be1e5ebec7d5bd14f71427d1e84f3dd0314c0f7b2291e5b200ac8c7c3b9255f80a45f526020525f20906bffffffffffffffffffffffff60a01b8254161790555f80f35b835163a9fbf51f60e01b81523381850152602490fd5b5060018060a01b0381165f526005602052835f20335f5260205260ff845f20541615610bae565b506001600160a01b038116331415610ba8565b823461016a57602036600319011261016a578160209235610c79816110cc565b505f52825260018060a01b03815f2054169051908152f35b823461016a575f36600319011261016a578051905f90825f5492610cb484610e69565b808352602094600190866001821691825f146104f0575050600114610ce55750506102729291610263910385610ed1565b5f80805286935091907f290decd9548b62a8d60345a988386fc84ba6bc95484008f6362f93160ef3e5635b828410610d265750505082010181610263610483565b8054848a018601528895508794909301928101610d10565b903461016a57602036600319011261016a57359063ffffffff60e01b821680920361016a57602091637965db0b60e01b8114908115610d7f575b5015158152f35b6380ac58cd60e01b811491508115610db1575b8115610da0575b5083610d78565b6301ffc9a760e01b14905083610d99565b635b5e139f60e01b81149150610d92565b5f5b838110610dd35750505f910152565b8181015183820152602001610dc4565b90602091610dfc81518092818552858086019101610dc2565b601f01601f1916010190565b600435906001600160a01b038216820361016a57565b602435906001600160a01b038216820361016a57565b606090600319011261016a576001600160a01b0390600435828116810361016a5791602435908116810361016a579060443590565b90600182811c92168015610e97575b6020831014610e8357565b634e487b7160e01b5f52602260045260245ffd5b91607f1691610e78565b6020810190811067ffffffffffffffff821117610ebd57604052565b634e487b7160e01b5f52604160045260245ffd5b90601f8019910116810190811067ffffffffffffffff821117610ebd57604052565b67ffffffffffffffff8111610ebd57601f01601f191660200190565b6001600160a01b03918216929091831561109257815f52602092600284528260409583875f2054169533151580611000575b5060029087610fcf575b825f5260038152885f2060018154019055835f5252865f20816bffffffffffffffffffffffff60a01b825416179055857fddf252ad1be2c89b69c2b068fc378daa952ba7f163c4a11628f55a4df523b3ef5f80a41692838303610fae5750505050565b6064945051926364283d7b60e01b8452600484015260248301526044820152fd5b5f84815260046020526040812080546001600160a01b03191690558881526003825289902080545f19019055610f4b565b9192509080611051575b15611018579084915f610f41565b868587611035576024915190637e27328960e01b82526004820152fd5b604491519063177e802f60e01b82523360048301526024820152fd5b503386148015611076575b8061100a5750845f52600481523384885f2054161461100a565b50855f5260058152865f20335f52815260ff875f20541661105c565b604051633250574960e11b81525f6004820152602490fd5b5f1981146110b85760010190565b634e487b7160e01b5f52601160045260245ffd5b5f818152600260205260409020546001600160a01b03169081156110ee575090565b60249060405190637e27328960e01b82526004820152fd5b805f52600660205260405f20335f5260205260ff60405f205416156111285750565b6044906040519063e2517d3f60e01b82523360048301526024820152fd5b90815f52600660205260405f209060018060a01b031690815f5260205260ff60405f205416155f146111be57815f52600660205260405f20815f5260205260405f20600160ff1982541617905533917f2f8788117e7eff1d82e926ec794901d17c78024a50270940304540a733656f0d5f80a4600190565b50505f90565b90815f52600660205260405f209060018060a01b031690815f5260205260ff60405f2054165f146111be57815f52600660205260405f20815f5260205260405f2060ff19815416905533917ff6391f5c32d9c69d2a47ea670b442974b53935d1edc7fd64eb21e047a839171b5f80a4600190565b9293909193843b61124b575b5050505050565b604051630a85bd0160e11b8082526001600160a01b03958616600483015293851660248201526044810191909152608060648201526020959490931693929085908290819061129e906084830190610de3565b03815f885af15f9181611342575b5061130b575050503d5f14611303573d916112c683610ef3565b926112d46040519485610ed1565b83523d5f8285013e5b825192836112fe57604051633250574960e11b815260048101849052602490fd5b019050fd5b6060916112dd565b9193506001600160e01b03199091160361132a57505f80808080611244565b60249060405190633250574960e11b82526004820152fd5b9091508581813d831161137b575b61135a8183610ed1565b8101031261016a57516001600160e01b03198116810361016a57905f6112ac565b503d611350565b801561143a575f81805b611426575061139a81610ef3565b906113a86040519283610ed1565b808252601f196113b782610ef3565b013660208401375b8092801561141f575f1982019182116110b8578193600a9260309084840682018092116110b8578551111561140b5760f81b6001600160f81b0319165f1a908401601f015304916113bf565b634e487b7160e01b5f52603260045260245ffd5b5050905090565b90611432600a916110aa565b91048061138c565b506040516040810181811067ffffffffffffffff821117610ebd5760405260018152600360fc1b60208201529056fef3f7a9fe364faab93b216da50a3214154f22a0a2b415b23a84c8169e8b636ee3a2646970667358221220d9eb966abc8c71fd9c096079351b8c56e62eac95a1f1953055c5803765b2bc7264736f6c6343000818003354cdd369e4e8a8515e52ca72ec816c2101831ad1f18bf44102ed171459c9b4f8","linkReferences":{}},"methodIdentifiers":{"DEFAULT_ADMIN_ROLE()":"a217fddf","MINTER_ROLE()":"d5391393","approve(address,uint256)":"095ea7b3","balanceOf(address)":"70a08231","baseURI()":"6c0360eb","getApproved(uint256)":"081812fc","getRoleAdmin(bytes32)":"248a9ca3","grantRole(bytes32,address)":"2f2ff15d","hasRole(bytes32,address)":"91d14854","isApprovedForAll(address,address)":"e985e9c5","mint(address,uint256)":"40c10f19","name()":"06fdde03","ownerOf(uint256)":"6352211e","renounceRole(bytes32,address)":"36568abe","revokeRole(bytes32,address)":"d547741f","safeTransferFrom(address,address,uint256)":"42842e0e","safeTransferFrom(address,address,uint256,bytes)":"b88d4fde","setApprovalForAll(address,bool)":"a22cb465","setBaseURI(string)":"55f804b3","supportsInterface(bytes4)":"01ffc9a7","symbol()":"95d89b41","tokenURI(uint256)":"c87b56dd","transferFrom(address,address,uint256)":"23b872dd"},"id":41}